:030000000208D221
:0C08D200787FE4F6D8FD75810A0208006A
:100857002046534920004E4F20466C616D65004687
:0E0867006C616D6520446574656374656400A2
:100800001208757BFF7A0879571208323090137FEF
:10081000C01208B67BFF7A08795D1208321208A769
:1008200080EA7FC01208B67BFF7A08796612083228
:0208300080DA6C
:100875007F381208B67F0E1208B67F061208B67FBB
:09088500011208B67F800208B6DA
:0E08B6008FB0C2A0C2A1D2A21208A7C2A22275
:0E08C4008FB0D2A0C2A1D2A21208A7C2A22257
:100832008B088A09890AAB08AA09A90A12088E60DC
:1008420013050AE50A7002050914F912088EFF124F
:0508520008C480E22251
:0E08A700E4FFFE0FBF00010EBE4EF8BF20F5AD
:0108B5002220
:10088E00BB010689828A83E0225002E722BBFE0268
:09089E00E32289828A83E493229B
:00000001FF
